{
  "_format": "hh-sol-artifact-1",
  "contractName": "LandNFT",
  "sourceName": "contracts/Regular.sol",
  "abi": [
    {
      "inputs": [],
      "stateMutability": "nonpayable",
      "type": "constructor"
    },
    {
      "anonymous": false,
      "inputs": [
        {
          "indexed": true,
          "internalType": "address",
          "name": "owner",
          "type": "address"
        },
        {
          "indexed": true,
          "internalType": "address",
          "name": "approved",
          "type": "address"
        },
        {
          "indexed": true,
          "internalType": "uint256",
          "name": "tokenId",
          "type": "uint256"
        }
      ],
      "name": "Approval",
      "type": "event"
    },
    {
      "anonymous": false,
      "inputs": [
        {
          "indexed": true,
          "internalType": "address",
          "name": "owner",
          "type": "address"
        },
        {
          "indexed": true,
          "internalType": "address",
          "name": "operator",
          "type": "address"
        },
        {
          "indexed": false,
          "internalType": "bool",
          "name": "approved",
          "type": "bool"
        }
      ],
      "name": "ApprovalForAll",
      "type": "event"
    },
    {
      "anonymous": false,
      "inputs": [
        {
          "indexed": true,
          "internalType": "address",
          "name": "previousOwner",
          "type": "address"
        },
        {
          "indexed": true,
          "internalType": "address",
          "name": "newOwner",
          "type": "address"
        }
      ],
      "name": "OwnershipTransferred",
      "type": "event"
    },
    {
      "anonymous": false,
      "inputs": [
        {
          "indexed": true,
          "internalType": "address",
          "name": "from",
          "type": "address"
        },
        {
          "indexed": true,
          "internalType": "address",
          "name": "to",
          "type": "address"
        },
        {
          "indexed": true,
          "internalType": "uint256",
          "name": "tokenId",
          "type": "uint256"
        }
      ],
      "name": "Transfer",
      "type": "event"
    },
    {
      "inputs": [],
      "name": "aa",
      "outputs": [
        {
          "internalType": "bytes32",
          "name": "",
          "type": "bytes32"
        }
      ],
      "stateMutability": "view",
      "type": "function"
    },
    {
      "inputs": [
        {
          "internalType": "address",
          "name": "to",
          "type": "address"
        },
        {
          "internalType": "uint256",
          "name": "tokenId",
          "type": "uint256"
        }
      ],
      "name": "approve",
      "outputs": [],
      "stateMutability": "nonpayable",
      "type": "function"
    },
    {
      "inputs": [
        {
          "internalType": "address",
          "name": "owner",
          "type": "address"
        }
      ],
      "name": "balanceOf",
      "outputs": [
        {
          "internalType": "uint256",
          "name": "",
          "type": "uint256"
        }
      ],
      "stateMutability": "view",
      "type": "function"
    },
    {
      "inputs": [
        {
          "internalType": "uint256",
          "name": "tokenId",
          "type": "uint256"
        }
      ],
      "name": "getApproved",
      "outputs": [
        {
          "internalType": "address",
          "name": "",
          "type": "address"
        }
      ],
      "stateMutability": "view",
      "type": "function"
    },
    {
      "inputs": [
        {
          "internalType": "uint256",
          "name": "id",
          "type": "uint256"
        }
      ],
      "name": "getPosData",
      "outputs": [
        {
          "components": [
            {
              "internalType": "uint256",
              "name": "x",
              "type": "uint256"
            },
            {
              "internalType": "uint256",
              "name": "y",
              "type": "uint256"
            }
          ],
          "internalType": "struct LandNFT.Position",
          "name": "",
          "type": "tuple"
        }
      ],
      "stateMutability": "view",
      "type": "function"
    },
    {
      "inputs": [
        {
          "internalType": "address",
          "name": "owner",
          "type": "address"
        },
        {
          "internalType": "address",
          "name": "operator",
          "type": "address"
        }
      ],
      "name": "isApprovedForAll",
      "outputs": [
        {
          "internalType": "bool",
          "name": "",
          "type": "bool"
        }
      ],
      "stateMutability": "view",
      "type": "function"
    },
    {
      "inputs": [
        {
          "internalType": "address",
          "name": "recipient",
          "type": "address"
        },
        {
          "internalType": "string",
          "name": "tokenURI",
          "type": "string"
        },
        {
          "internalType": "uint256",
          "name": "x",
          "type": "uint256"
        },
        {
          "internalType": "uint256",
          "name": "y",
          "type": "uint256"
        },
        {
          "internalType": "string",
          "name": "nftType",
          "type": "string"
        }
      ],
      "name": "mintNFT",
      "outputs": [
        {
          "internalType": "uint256",
          "name": "",
          "type": "uint256"
        }
      ],
      "stateMutability": "payable",
      "type": "function"
    },
    {
      "inputs": [],
      "name": "name",
      "outputs": [
        {
          "internalType": "string",
          "name": "",
          "type": "string"
        }
      ],
      "stateMutability": "view",
      "type": "function"
    },
    {
      "inputs": [],
      "name": "owner",
      "outputs": [
        {
          "internalType": "address",
          "name": "",
          "type": "address"
        }
      ],
      "stateMutability": "view",
      "type": "function"
    },
    {
      "inputs": [
        {
          "internalType": "uint256",
          "name": "tokenId",
          "type": "uint256"
        }
      ],
      "name": "ownerOf",
      "outputs": [
        {
          "internalType": "address",
          "name": "",
          "type": "address"
        }
      ],
      "stateMutability": "view",
      "type": "function"
    },
    {
      "inputs": [],
      "name": "renounceOwnership",
      "outputs": [],
      "stateMutability": "nonpayable",
      "type": "function"
    },
    {
      "inputs": [
        {
          "internalType": "address",
          "name": "from",
          "type": "address"
        },
        {
          "internalType": "address",
          "name": "to",
          "type": "address"
        },
        {
          "internalType": "uint256",
          "name": "tokenId",
          "type": "uint256"
        }
      ],
      "name": "safeTransferFrom",
      "outputs": [],
      "stateMutability": "nonpayable",
      "type": "function"
    },
    {
      "inputs": [
        {
          "internalType": "address",
          "name": "from",
          "type": "address"
        },
        {
          "internalType": "address",
          "name": "to",
          "type": "address"
        },
        {
          "internalType": "uint256",
          "name": "tokenId",
          "type": "uint256"
        },
        {
          "internalType": "bytes",
          "name": "_data",
          "type": "bytes"
        }
      ],
      "name": "safeTransferFrom",
      "outputs": [],
      "stateMutability": "nonpayable",
      "type": "function"
    },
    {
      "inputs": [
        {
          "internalType": "address",
          "name": "operator",
          "type": "address"
        },
        {
          "internalType": "bool",
          "name": "approved",
          "type": "bool"
        }
      ],
      "name": "setApprovalForAll",
      "outputs": [],
      "stateMutability": "nonpayable",
      "type": "function"
    },
    {
      "inputs": [
        {
          "internalType": "bytes4",
          "name": "interfaceId",
          "type": "bytes4"
        }
      ],
      "name": "supportsInterface",
      "outputs": [
        {
          "internalType": "bool",
          "name": "",
          "type": "bool"
        }
      ],
      "stateMutability": "view",
      "type": "function"
    },
    {
      "inputs": [],
      "name": "symbol",
      "outputs": [
        {
          "internalType": "string",
          "name": "",
          "type": "string"
        }
      ],
      "stateMutability": "view",
      "type": "function"
    },
    {
      "inputs": [
        {
          "internalType": "uint256",
          "name": "tokenId",
          "type": "uint256"
        }
      ],
      "name": "tokenURI",
      "outputs": [
        {
          "internalType": "string",
          "name": "",
          "type": "string"
        }
      ],
      "stateMutability": "view",
      "type": "function"
    },
    {
      "inputs": [
        {
          "internalType": "address",
          "name": "from",
          "type": "address"
        },
        {
          "internalType": "address",
          "name": "to",
          "type": "address"
        },
        {
          "internalType": "uint256",
          "name": "tokenId",
          "type": "uint256"
        }
      ],
      "name": "transferFrom",
      "outputs": [],
      "stateMutability": "nonpayable",
      "type": "function"
    },
    {
      "inputs": [
        {
          "internalType": "address",
          "name": "newOwner",
          "type": "address"
        }
      ],
      "name": "transferOwnership",
      "outputs": [],
      "stateMutability": "nonpayable",
      "type": "function"
    }
  ],
  "bytecode": "0x60806040526729a2241af62c0000600a55674563918244f40000600b556040518060400160405280600781526020017f726567756c61720000000000000000000000000000000000000000000000000081525080519060200120600c553480156200006957600080fd5b506040518060400160405280600781526020017f4c616e644e4654000000000000000000000000000000000000000000000000008152506040518060400160405280600381526020017f4e465400000000000000000000000000000000000000000000000000000000008152508160009080519060200190620000ee929190620001fe565b50806001908051906020019062000107929190620001fe565b5050506200012a6200011e6200013060201b60201c565b6200013860201b60201c565b62000313565b600033905090565b6000600760009054906101000a900473ffffffffffffffffffffffffffffffffffffffff16905081600760006101000a81548173ffffffffffffffffffffffffffffffffffffffff021916908373ffffffffffffffffffffffffffffffffffffffff1602179055508173ffffffffffffffffffffffffffffffffffffffff168173ffffffffffffffffffffffffffffffffffffffff167f8be0079c531659141344cd1fd0a4f28419497f9722a3daafe3b4186f6b6457e060405160405180910390a35050565b8280546200020c90620002ae565b90600052602060002090601f0160209004810192826200023057600085556200027c565b82601f106200024b57805160ff19168380011785556200027c565b828001600101855582156200027c579182015b828111156200027b5782518255916020019190600101906200025e565b5b5090506200028b91906200028f565b5090565b5b80821115620002aa57600081600090555060010162000290565b5090565b60006002820490506001821680620002c757607f821691505b60208210811415620002de57620002dd620002e4565b5b50919050565b7f4e487b7100000000000000000000000000000000000000000000000000000000600052602260045260246000fd5b61335480620003236000396000f3fe6080604052600436106101145760003560e01c806370a08231116100a0578063a22cb46511610064578063a22cb465146103b8578063b88d4fde146103e1578063c87b56dd1461040a578063e985e9c514610447578063f2fde38b1461048457610114565b806370a08231146102e3578063715018a6146103205780638466c3e6146103375780638da5cb5b1461036257806395d89b411461038d57610114565b80631aedef5b116100e75780631aedef5b146101e757806323b872dd146102175780632d520de51461024057806342842e0e1461027d5780636352211e146102a657610114565b806301ffc9a71461011957806306fdde0314610156578063081812fc14610181578063095ea7b3146101be575b600080fd5b34801561012557600080fd5b50610140600480360381019061013b919061220a565b6104ad565b60405161014d91906126c6565b60405180910390f35b34801561016257600080fd5b5061016b61058f565b60405161017891906126fc565b60405180910390f35b34801561018d57600080fd5b506101a860048036038101906101a3919061225c565b610621565b6040516101b5919061265f565b60405180910390f35b3480156101ca57600080fd5b506101e560048036038101906101e091906121ce565b6106a6565b005b61020160048036038101906101fc9190612127565b6107be565b60405161020e9190612999565b60405180910390f35b34801561022357600080fd5b5061023e60048036038101906102399190612021565b6108ef565b005b34801561024c57600080fd5b506102676004803603810190610262919061225c565b61094f565b604051610274919061297e565b60405180910390f35b34801561028957600080fd5b506102a4600480360381019061029f9190612021565b610990565b005b3480156102b257600080fd5b506102cd60048036038101906102c8919061225c565b6109b0565b6040516102da919061265f565b60405180910390f35b3480156102ef57600080fd5b5061030a60048036038101906103059190611fbc565b610a62565b6040516103179190612999565b60405180910390f35b34801561032c57600080fd5b50610335610b1a565b005b34801561034357600080fd5b5061034c610ba2565b60405161035991906126e1565b60405180910390f35b34801561036e57600080fd5b50610377610ba8565b604051610384919061265f565b60405180910390f35b34801561039957600080fd5b506103a2610bd2565b6040516103af91906126fc565b60405180910390f35b3480156103c457600080fd5b506103df60048036038101906103da91906120eb565b610c64565b005b3480156103ed57600080fd5b5061040860048036038101906104039190612070565b610c7a565b005b34801561041657600080fd5b50610431600480360381019061042c919061225c565b610cdc565b60405161043e91906126fc565b60405180910390f35b34801561045357600080fd5b5061046e60048036038101906104699190611fe5565b610e2e565b60405161047b91906126c6565b60405180910390f35b34801561049057600080fd5b506104ab60048036038101906104a69190611fbc565b610ec2565b005b60007f80ac58cd000000000000000000000000000000000000000000000000000000007bffffffffffffffffffffffffffffffffffffffffffffffffffffffff1916827bffffffffffffffffffffffffffffffffffffffffffffffffffffffff1916148061057857507f5b5e139f000000000000000000000000000000000000000000000000000000007bffffffffffffffffffffffffffffffffffffffffffffffffffffffff1916827bffffffffffffffffffffffffffffffffffffffffffffffffffffffff1916145b80610588575061058782610fba565b5b9050919050565b60606000805461059e90612bf9565b80601f01602080910402602001604051908101604052809291908181526020018280546105ca90612bf9565b80156106175780601f106105ec57610100808354040283529160200191610617565b820191906000526020600020905b8154815290600101906020018083116105fa57829003601f168201915b5050505050905090565b600061062c82611024565b61066b576040517f08c379a0000000000000000000000000000000000000000000000000000000008152600401610662906128be565b60405180910390fd5b6004600083815260200190815260200160002060009054906101000a900473ffffffffffffffffffffffffffffffffffffffff169050919050565b60006106b1826109b0565b90508073ffffffffffffffffffffffffffffffffffffffff168373ffffffffffffffffffffffffffffffffffffffff161415610722576040517f08c379a00000000000000000000000000000000000000000000000000000000081526004016107199061291e565b60405180910390fd5b8073ffffffffffffffffffffffffffffffffffffffff16610741611090565b73ffffffffffffffffffffffffffffffffffffffff161480610770575061076f8161076a611090565b610e2e565b5b6107af576040517f08c379a00000000000000000000000000000000000000000000000000000000081526004016107a6906127fe565b60405180910390fd5b6107b98383611098565b505050565b60007f45aeb0e7d5d5e3fe2cc61f373c49c2358d245eea4cede6ba60e9ef513a44d02c60001b8280519060200120141561083b57600a543414610836576040517f08c379a000000000000000000000000000000000000000000000000000000000815260040161082d9061295e565b60405180910390fd5b610880565b600b54341461087f576040517f08c379a00000000000000000000000000000000000000000000000000000000081526004016108769061295e565b60405180910390fd5b5b61088a6008611151565b60006108966008611167565b90506108a28782611175565b6108ac818761134f565b8460096000838152602001908152602001600020600001819055508360096000838152602001908152602001600020600101819055508091505095945050505050565b6109006108fa611090565b826113c3565b61093f576040517f08c379a00000000000000000000000000000000000000000000000000000000081526004016109369061293e565b60405180910390fd5b61094a8383836114a1565b505050565b610957611dc6565b60096000838152602001908152602001600020604051806040016040529081600082015481526020016001820154815250509050919050565b6109ab83838360405180602001604052806000815250610c7a565b505050565b6000806002600084815260200190815260200160002060009054906101000a900473ffffffffffffffffffffffffffffffffffffffff169050600073ffffffffffffffffffffffffffffffffffffffff168173ffffffffffffffffffffffffffffffffffffffff161415610a59576040517f08c379a0000000000000000000000000000000000000000000000000000000008152600401610a509061283e565b60405180910390fd5b80915050919050565b60008073ffffffffffffffffffffffffffffffffffffffff168273ffffffffffffffffffffffffffffffffffffffff161415610ad3576040517f08c379a0000000000000000000000000000000000000000000000000000000008152600401610aca9061281e565b60405180910390fd5b600360008373ffffffffffffffffffffffffffffffffffffffff1673ffffffffffffffffffffffffffffffffffffffff168152602001908152602001600020549050919050565b610b22611090565b73ffffffffffffffffffffffffffffffffffffffff16610b40610ba8565b73ffffffffffffffffffffffffffffffffffffffff1614610b96576040517f08c379a0000000000000000000000000000000000000000000000000000000008152600401610b8d906128de565b60405180910390fd5b610ba06000611708565b565b600c5481565b6000600760009054906101000a900473ffffffffffffffffffffffffffffffffffffffff16905090565b606060018054610be190612bf9565b80601f0160208091040260200160405190810160405280929190818152602001828054610c0d90612bf9565b8015610c5a5780601f10610c2f57610100808354040283529160200191610c5a565b820191906000526020600020905b815481529060010190602001808311610c3d57829003601f168201915b5050505050905090565b610c76610c6f611090565b83836117ce565b5050565b610c8b610c85611090565b836113c3565b610cca576040517f08c379a0000000000000000000000000000000000000000000000000000000008152600401610cc19061293e565b60405180910390fd5b610cd68484848461193b565b50505050565b6060610ce782611024565b610d26576040517f08c379a0000000000000000000000000000000000000000000000000000000008152600401610d1d9061289e565b60405180910390fd5b6000600660008481526020019081526020016000208054610d4690612bf9565b80601f0160208091040260200160405190810160405280929190818152602001828054610d7290612bf9565b8015610dbf5780601f10610d9457610100808354040283529160200191610dbf565b820191906000526020600020905b815481529060010190602001808311610da257829003601f168201915b505050505090506000610dd0611997565b9050600081511415610de6578192505050610e29565b600082511115610e1b578082604051602001610e0392919061263b565b60405160208183030381529060405292505050610e29565b610e24846119ae565b925050505b919050565b6000600560008473ffffffffffffffffffffffffffffffffffffffff1673ffffffffffffffffffffffffffffffffffffffff16815260200190815260200160002060008373ffffffffffffffffffffffffffffffffffffffff1673ffffffffffffffffffffffffffffffffffffffff16815260200190815260200160002060009054906101000a900460ff16905092915050565b610eca611090565b73ffffffffffffffffffffffffffffffffffffffff16610ee8610ba8565b73ffffffffffffffffffffffffffffffffffffffff1614610f3e576040517f08c379a0000000000000000000000000000000000000000000000000000000008152600401610f35906128de565b60405180910390fd5b600073ffffffffffffffffffffffffffffffffffffffff168173ffffffffffffffffffffffffffffffffffffffff161415610fae576040517f08c379a0000000000000000000000000000000000000000000000000000000008152600401610fa59061273e565b60405180910390fd5b610fb781611708565b50565b60007f01ffc9a7000000000000000000000000000000000000000000000000000000007bffffffffffffffffffffffffffffffffffffffffffffffffffffffff1916827bffffffffffffffffffffffffffffffffffffffffffffffffffffffff1916149050919050565b60008073ffffffffffffffffffffffffffffffffffffffff166002600084815260200190815260200160002060009054906101000a900473ffffffffffffffffffffffffffffffffffffffff1673ffffffffffffffffffffffffffffffffffffffff1614159050919050565b600033905090565b816004600083815260200190815260200160002060006101000a81548173ffffffffffffffffffffffffffffffffffffffff021916908373ffffffffffffffffffffffffffffffffffffffff160217905550808273ffffffffffffffffffffffffffffffffffffffff1661110b836109b0565b73ffffffffffffffffffffffffffffffffffffffff167f8c5be1e5ebec7d5bd14f71427d1e84f3dd0314c0f7b2291e5b200ac8c7c3b92560405160405180910390a45050565b6001816000016000828254019250508190555050565b600081600001549050919050565b600073ffffffffffffffffffffffffffffffffffffffff168273ffffffffffffffffffffffffffffffffffffffff1614156111e5576040517f08c379a00000000000000000000000000000000000000000000000000000000081526004016111dc9061287e565b60405180910390fd5b6111ee81611024565b1561122e576040517f08c379a00000000000000000000000000000000000000000000000000000000081526004016112259061277e565b60405180910390fd5b61123a60008383611a55565b6001600360008473ffffffffffffffffffffffffffffffffffffffff1673ffffffffffffffffffffffffffffffffffffffff168152602001908152602001600020600082825461128a9190612a7e565b92505081905550816002600083815260200190815260200160002060006101000a81548173ffffffffffffffffffffffffffffffffffffffff021916908373ffffffffffffffffffffffffffffffffffffffff160217905550808273ffffffffffffffffffffffffffffffffffffffff16600073ffffffffffffffffffffffffffffffffffffffff167fddf252ad1be2c89b69c2b068fc378daa952ba7f163c4a11628f55a4df523b3ef60405160405180910390a461134b60008383611a5a565b5050565b61135882611024565b611397576040517f08c379a000000000000000000000000000000000000000000000000000000000815260040161138e9061285e565b60405180910390fd5b806006600084815260200190815260200160002090805190602001906113be929190611de0565b505050565b60006113ce82611024565b61140d576040517f08c379a0000000000000000000000000000000000000000000000000000000008152600401611404906127de565b60405180910390fd5b6000611418836109b0565b90508073ffffffffffffffffffffffffffffffffffffffff168473ffffffffffffffffffffffffffffffffffffffff16148061148757508373ffffffffffffffffffffffffffffffffffffffff1661146f84610621565b73ffffffffffffffffffffffffffffffffffffffff16145b8061149857506114978185610e2e565b5b91505092915050565b8273ffffffffffffffffffffffffffffffffffffffff166114c1826109b0565b73ffffffffffffffffffffffffffffffffffffffff1614611517576040517f08c379a000000000000000000000000000000000000000000000000000000000815260040161150e9061275e565b60405180910390fd5b600073ffffffffffffffffffffffffffffffffffffffff168273ffffffffffffffffffffffffffffffffffffffff161415611587576040517f08c379a000000000000000000000000000000000000000000000000000000000815260040161157e9061279e565b60405180910390fd5b611592838383611a55565b61159d600082611098565b6001600360008573ffffffffffffffffffffffffffffffffffffffff1673ffffffffffffffffffffffffffffffffffffffff16815260200190815260200160002060008282546115ed9190612b05565b925050819055506001600360008473ffffffffffffffffffffffffffffffffffffffff1673ffffffffffffffffffffffffffffffffffffffff16815260200190815260200160002060008282546116449190612a7e565b92505081905550816002600083815260200190815260200160002060006101000a81548173ffffffffffffffffffffffffffffffffffffffff021916908373ffffffffffffffffffffffffffffffffffffffff160217905550808273ffffffffffffffffffffffffffffffffffffffff168473ffffffffffffffffffffffffffffffffffffffff167fddf252ad1be2c89b69c2b068fc378daa952ba7f163c4a11628f55a4df523b3ef60405160405180910390a4611703838383611a5a565b505050565b6000600760009054906101000a900473ffffffffffffffffffffffffffffffffffffffff16905081600760006101000a81548173ffffffffffffffffffffffffffffffffffffffff021916908373ffffffffffffffffffffffffffffffffffffffff1602179055508173ffffffffffffffffffffffffffffffffffffffff168173ffffffffffffffffffffffffffffffffffffffff167f8be0079c531659141344cd1fd0a4f28419497f9722a3daafe3b4186f6b6457e060405160405180910390a35050565b8173ffffffffffffffffffffffffffffffffffffffff168373ffffffffffffffffffffffffffffffffffffffff16141561183d576040517f08c379a0000000000000000000000000000000000000000000000000000000008152600401611834906127be565b60405180910390fd5b80600560008573ffffffffffffffffffffffffffffffffffffffff1673ffffffffffffffffffffffffffffffffffffffff16815260200190815260200160002060008473ffffffffffffffffffffffffffffffffffffffff1673ffffffffffffffffffffffffffffffffffffffff16815260200190815260200160002060006101000a81548160ff0219169083151502179055508173ffffffffffffffffffffffffffffffffffffffff168373ffffffffffffffffffffffffffffffffffffffff167f17307eab39ab6107e8899845ad3d59bd9653f200f220920489ca2b5937696c318360405161192e91906126c6565b60405180910390a3505050565b6119468484846114a1565b61195284848484611a5f565b611991576040517f08c379a00000000000000000000000000000000000000000000000000000000081526004016119889061271e565b60405180910390fd5b50505050565b606060405180602001604052806000815250905090565b60606119b982611024565b6119f8576040517f08c379a00000000000000000000000000000000000000000000000000000000081526004016119ef906128fe565b60405180910390fd5b6000611a02611997565b90506000815111611a225760405180602001604052806000815250611a4d565b80611a2c84611bf6565b604051602001611a3d92919061263b565b6040516020818303038152906040525b915050919050565b505050565b505050565b6000611a808473ffffffffffffffffffffffffffffffffffffffff16611da3565b15611be9578373ffffffffffffffffffffffffffffffffffffffff1663150b7a02611aa9611090565b8786866040518563ffffffff1660e01b8152600401611acb949392919061267a565b602060405180830381600087803b158015611ae557600080fd5b505af1925050508015611b1657506040513d601f19601f82011682018060405250810190611b139190612233565b60015b611b99573d8060008114611b46576040519150601f19603f3d011682016040523d82523d6000602084013e611b4b565b606091505b50600081511415611b91576040517f08c379a0000000000000000000000000000000000000000000000000000000008152600401611b889061271e565b60405180910390fd5b805181602001fd5b63150b7a0260e01b7bffffffffffffffffffffffffffffffffffffffffffffffffffffffff1916817bffffffffffffffffffffffffffffffffffffffffffffffffffffffff191614915050611bee565b600190505b949350505050565b60606000821415611c3e576040518060400160405280600181526020017f30000000000000000000000000000000000000000000000000000000000000008152509050611d9e565b600082905060005b60008214611c70578080611c5990612c5c565b915050600a82611c699190612ad4565b9150611c46565b60008167ffffffffffffffff811115611cb2577f4e487b7100000000000000000000000000000000000000000000000000000000600052604160045260246000fd5b6040519080825280601f01601f191660200182016040528015611ce45781602001600182028036833780820191505090505b5090505b60008514611d9757600182611cfd9190612b05565b9150600a85611d0c9190612ca5565b6030611d189190612a7e565b60f81b818381518110611d54577f4e487b7100000000000000000000000000000000000000000000000000000000600052603260045260246000fd5b60200101907effffffffffffffffffffffffffffffffffffffffffffffffffffffffffffff1916908160001a905350600a85611d909190612ad4565b9450611ce8565b8093505050505b919050565b6000808273ffffffffffffffffffffffffffffffffffffffff163b119050919050565b604051806040016040528060008152602001600081525090565b828054611dec90612bf9565b90600052602060002090601f016020900481019282611e0e5760008555611e55565b82601f10611e2757805160ff1916838001178555611e55565b82800160010185558215611e55579182015b82811115611e54578251825591602001919060010190611e39565b5b509050611e629190611e66565b5090565b5b80821115611e7f576000816000905550600101611e67565b5090565b6000611e96611e91846129d9565b6129b4565b905082815260208101848484011115611eae57600080fd5b611eb9848285612bb7565b509392505050565b6000611ed4611ecf84612a0a565b6129b4565b905082815260208101848484011115611eec57600080fd5b611ef7848285612bb7565b509392505050565b600081359050611f0e816132c2565b92915050565b600081359050611f23816132d9565b92915050565b600081359050611f38816132f0565b92915050565b600081519050611f4d816132f0565b92915050565b600082601f830112611f6457600080fd5b8135611f74848260208601611e83565b91505092915050565b600082601f830112611f8e57600080fd5b8135611f9e848260208601611ec1565b91505092915050565b600081359050611fb681613307565b92915050565b600060208284031215611fce57600080fd5b6000611fdc84828501611eff565b91505092915050565b60008060408385031215611ff857600080fd5b600061200685828601611eff565b925050602061201785828601611eff565b9150509250929050565b60008060006060848603121561203657600080fd5b600061204486828701611eff565b935050602061205586828701611eff565b925050604061206686828701611fa7565b9150509250925092565b6000806000806080858703121561208657600080fd5b600061209487828801611eff565b94505060206120a587828801611eff565b93505060406120b687828801611fa7565b925050606085013567ffffffffffffffff8111156120d357600080fd5b6120df87828801611f53565b91505092959194509250565b600080604083850312156120fe57600080fd5b600061210c85828601611eff565b925050602061211d85828601611f14565b9150509250929050565b600080600080600060a0868803121561213f57600080fd5b600061214d88828901611eff565b955050602086013567ffffffffffffffff81111561216a57600080fd5b61217688828901611f7d565b945050604061218788828901611fa7565b935050606061219888828901611fa7565b925050608086013567ffffffffffffffff8111156121b557600080fd5b6121c188828901611f7d565b9150509295509295909350565b600080604083850312156121e157600080fd5b60006121ef85828601611eff565b925050602061220085828601611fa7565b9150509250929050565b60006020828403121561221c57600080fd5b600061222a84828501611f29565b91505092915050565b60006020828403121561224557600080fd5b600061225384828501611f3e565b91505092915050565b60006020828403121561226e57600080fd5b600061227c84828501611fa7565b91505092915050565b61228e81612b39565b82525050565b61229d81612b4b565b82525050565b6122ac81612b57565b82525050565b60006122bd82612a3b565b6122c78185612a51565b93506122d7818560208601612bc6565b6122e081612d92565b840191505092915050565b60006122f682612a46565b6123008185612a62565b9350612310818560208601612bc6565b61231981612d92565b840191505092915050565b600061232f82612a46565b6123398185612a73565b9350612349818560208601612bc6565b80840191505092915050565b6000612362603283612a62565b915061236d82612da3565b604082019050919050565b6000612385602683612a62565b915061239082612df2565b604082019050919050565b60006123a8602583612a62565b91506123b382612e41565b604082019050919050565b60006123cb601c83612a62565b91506123d682612e90565b602082019050919050565b60006123ee602483612a62565b91506123f982612eb9565b604082019050919050565b6000612411601983612a62565b915061241c82612f08565b602082019050919050565b6000612434602c83612a62565b915061243f82612f31565b604082019050919050565b6000612457603883612a62565b915061246282612f80565b604082019050919050565b600061247a602a83612a62565b915061248582612fcf565b604082019050919050565b600061249d602983612a62565b91506124a88261301e565b604082019050919050565b60006124c0602e83612a62565b91506124cb8261306d565b604082019050919050565b60006124e3602083612a62565b91506124ee826130bc565b602082019050919050565b6000612506603183612a62565b9150612511826130e5565b604082019050919050565b6000612529602c83612a62565b915061253482613134565b604082019050919050565b600061254c602083612a62565b915061255782613183565b602082019050919050565b600061256f602f83612a62565b915061257a826131ac565b604082019050919050565b6000612592602183612a62565b915061259d826131fb565b604082019050919050565b60006125b5603183612a62565b91506125c08261324a565b604082019050919050565b60006125d8600e83612a62565b91506125e382613299565b602082019050919050565b604082016000820151612604600085018261261d565b506020820151612617602085018261261d565b50505050565b61262681612bad565b82525050565b61263581612bad565b82525050565b60006126478285612324565b91506126538284612324565b91508190509392505050565b60006020820190506126746000830184612285565b92915050565b600060808201905061268f6000830187612285565b61269c6020830186612285565b6126a9604083018561262c565b81810360608301526126bb81846122b2565b905095945050505050565b60006020820190506126db6000830184612294565b92915050565b60006020820190506126f660008301846122a3565b92915050565b6000602082019050818103600083015261271681846122eb565b905092915050565b6000602082019050818103600083015261273781612355565b9050919050565b6000602082019050818103600083015261275781612378565b9050919050565b600060208201905081810360008301526127778161239b565b9050919050565b60006020820190508181036000830152612797816123be565b9050919050565b600060208201905081810360008301526127b7816123e1565b9050919050565b600060208201905081810360008301526127d781612404565b9050919050565b600060208201905081810360008301526127f781612427565b9050919050565b600060208201905081810360008301526128178161244a565b9050919050565b600060208201905081810360008301526128378161246d565b9050919050565b6000602082019050818103600083015261285781612490565b9050919050565b60006020820190508181036000830152612877816124b3565b9050919050565b60006020820190508181036000830152612897816124d6565b9050919050565b600060208201905081810360008301526128b7816124f9565b9050919050565b600060208201905081810360008301526128d78161251c565b9050919050565b600060208201905081810360008301526128f78161253f565b9050919050565b6000602082019050818103600083015261291781612562565b9050919050565b6000602082019050818103600083015261293781612585565b9050919050565b60006020820190508181036000830152612957816125a8565b9050919050565b60006020820190508181036000830152612977816125cb565b9050919050565b600060408201905061299360008301846125ee565b92915050565b60006020820190506129ae600083018461262c565b92915050565b60006129be6129cf565b90506129ca8282612c2b565b919050565b6000604051905090565b600067ffffffffffffffff8211156129f4576129f3612d63565b5b6129fd82612d92565b9050602081019050919050565b600067ffffffffffffffff821115612a2557612a24612d63565b5b612a2e82612d92565b9050602081019050919050565b600081519050919050565b600081519050919050565b600082825260208201905092915050565b600082825260208201905092915050565b600081905092915050565b6000612a8982612bad565b9150612a9483612bad565b9250827fffffffffffffffffffffffffffffffffffffffffffffffffffffffffffffffff03821115612ac957612ac8612cd6565b5b828201905092915050565b6000612adf82612bad565b9150612aea83612bad565b925082612afa57612af9612d05565b5b828204905092915050565b6000612b1082612bad565b9150612b1b83612bad565b925082821015612b2e57612b2d612cd6565b5b828203905092915050565b6000612b4482612b8d565b9050919050565b60008115159050919050565b6000819050919050565b60007fffffffff0000000000000000000000000000000000000000000000000000000082169050919050565b600073ffffffffffffffffffffffffffffffffffffffff82169050919050565b6000819050919050565b82818337600083830152505050565b60005b83811015612be4578082015181840152602081019050612bc9565b83811115612bf3576000848401525b50505050565b60006002820490506001821680612c1157607f821691505b60208210811415612c2557612c24612d34565b5b50919050565b612c3482612d92565b810181811067ffffffffffffffff82111715612c5357612c52612d63565b5b80604052505050565b6000612c6782612bad565b91507fffffffffffffffffffffffffffffffffffffffffffffffffffffffffffffffff821415612c9a57612c99612cd6565b5b600182019050919050565b6000612cb082612bad565b9150612cbb83612bad565b925082612ccb57612cca612d05565b5b828206905092915050565b7f4e487b7100000000000000000000000000000000000000000000000000000000600052601160045260246000fd5b7f4e487b7100000000000000000000000000000000000000000000000000000000600052601260045260246000fd5b7f4e487b7100000000000000000000000000000000000000000000000000000000600052602260045260246000fd5b7f4e487b7100000000000000000000000000000000000000000000000000000000600052604160045260246000fd5b6000601f19601f8301169050919050565b7f4552433732313a207472616e7366657220746f206e6f6e20455243373231526560008201527f63656976657220696d706c656d656e7465720000000000000000000000000000602082015250565b7f4f776e61626c653a206e6577206f776e657220697320746865207a65726f206160008201527f6464726573730000000000000000000000000000000000000000000000000000602082015250565b7f4552433732313a207472616e736665722066726f6d20696e636f72726563742060008201527f6f776e6572000000000000000000000000000000000000000000000000000000602082015250565b7f4552433732313a20746f6b656e20616c7265616479206d696e74656400000000600082015250565b7f4552433732313a207472616e7366657220746f20746865207a65726f2061646460008201527f7265737300000000000000000000000000000000000000000000000000000000602082015250565b7f4552433732313a20617070726f766520746f2063616c6c657200000000000000600082015250565b7f4552433732313a206f70657261746f7220717565727920666f72206e6f6e657860008201527f697374656e7420746f6b656e0000000000000000000000000000000000000000602082015250565b7f4552433732313a20617070726f76652063616c6c6572206973206e6f74206f7760008201527f6e6572206e6f7220617070726f76656420666f7220616c6c0000000000000000602082015250565b7f4552433732313a2062616c616e636520717565727920666f7220746865207a6560008201527f726f206164647265737300000000000000000000000000000000000000000000602082015250565b7f4552433732313a206f776e657220717565727920666f72206e6f6e657869737460008201527f656e7420746f6b656e0000000000000000000000000000000000000000000000602082015250565b7f45524337323155524953746f726167653a2055524920736574206f66206e6f6e60008201527f6578697374656e7420746f6b656e000000000000000000000000000000000000602082015250565b7f4552433732313a206d696e7420746f20746865207a65726f2061646472657373600082015250565b7f45524337323155524953746f726167653a2055524920717565727920666f722060008201527f6e6f6e6578697374656e7420746f6b656e000000000000000000000000000000602082015250565b7f4552433732313a20617070726f76656420717565727920666f72206e6f6e657860008201527f697374656e7420746f6b656e0000000000000000000000000000000000000000602082015250565b7f4f776e61626c653a2063616c6c6572206973206e6f7420746865206f776e6572600082015250565b7f4552433732314d657461646174613a2055524920717565727920666f72206e6f60008201527f6e6578697374656e7420746f6b656e0000000000000000000000000000000000602082015250565b7f4552433732313a20617070726f76616c20746f2063757272656e74206f776e6560008201527f7200000000000000000000000000000000000000000000000000000000000000602082015250565b7f4552433732313a207472616e736665722063616c6c6572206973206e6f74206f60008201527f776e6572206e6f7220617070726f766564000000000000000000000000000000602082015250565b7f76616c7565206e6f7420676f6f64000000000000000000000000000000000000600082015250565b6132cb81612b39565b81146132d657600080fd5b50565b6132e281612b4b565b81146132ed57600080fd5b50565b6132f981612b61565b811461330457600080fd5b50565b61331081612bad565b811461331b57600080fd5b5056fea26469706673582212205604d6a8c010f78c2994c894fd435ead3a6ec9e3d92e4ecae3ad91478de839c164736f6c63430008040033",
  "linkReferences": {},
  "deployedLinkReferences": {}
}