{
  "_format": "hh-sol-artifact-1",
  "contractName": "MyNFT",
  "sourceName": "contracts/MyNFT.sol",
  "abi": [
    {
      "inputs": [],
      "stateMutability": "nonpayable",
      "type": "constructor"
    },
    {
      "anonymous": false,
      "inputs": [
        {
          "indexed": true,
          "internalType": "address",
          "name": "owner",
          "type": "address"
        },
        {
          "indexed": true,
          "internalType": "address",
          "name": "approved",
          "type": "address"
        },
        {
          "indexed": true,
          "internalType": "uint256",
          "name": "tokenId",
          "type": "uint256"
        }
      ],
      "name": "Approval",
      "type": "event"
    },
    {
      "anonymous": false,
      "inputs": [
        {
          "indexed": true,
          "internalType": "address",
          "name": "owner",
          "type": "address"
        },
        {
          "indexed": true,
          "internalType": "address",
          "name": "operator",
          "type": "address"
        },
        {
          "indexed": false,
          "internalType": "bool",
          "name": "approved",
          "type": "bool"
        }
      ],
      "name": "ApprovalForAll",
      "type": "event"
    },
    {
      "anonymous": false,
      "inputs": [
        {
          "indexed": true,
          "internalType": "address",
          "name": "previousOwner",
          "type": "address"
        },
        {
          "indexed": true,
          "internalType": "address",
          "name": "newOwner",
          "type": "address"
        }
      ],
      "name": "OwnershipTransferred",
      "type": "event"
    },
    {
      "anonymous": false,
      "inputs": [
        {
          "indexed": true,
          "internalType": "address",
          "name": "from",
          "type": "address"
        },
        {
          "indexed": true,
          "internalType": "address",
          "name": "to",
          "type": "address"
        },
        {
          "indexed": true,
          "internalType": "uint256",
          "name": "tokenId",
          "type": "uint256"
        }
      ],
      "name": "Transfer",
      "type": "event"
    },
    {
      "inputs": [
        {
          "internalType": "address[]",
          "name": "userAddress",
          "type": "address[]"
        }
      ],
      "name": "addAdmin",
      "outputs": [],
      "stateMutability": "nonpayable",
      "type": "function"
    },
    {
      "inputs": [
        {
          "internalType": "address[]",
          "name": "newAddress",
          "type": "address[]"
        }
      ],
      "name": "addWhiteList",
      "outputs": [],
      "stateMutability": "nonpayable",
      "type": "function"
    },
    {
      "inputs": [
        {
          "internalType": "address",
          "name": "to",
          "type": "address"
        },
        {
          "internalType": "uint256",
          "name": "tokenId",
          "type": "uint256"
        }
      ],
      "name": "approve",
      "outputs": [],
      "stateMutability": "nonpayable",
      "type": "function"
    },
    {
      "inputs": [
        {
          "internalType": "address",
          "name": "owner",
          "type": "address"
        }
      ],
      "name": "balanceOf",
      "outputs": [
        {
          "internalType": "uint256",
          "name": "",
          "type": "uint256"
        }
      ],
      "stateMutability": "view",
      "type": "function"
    },
    {
      "inputs": [
        {
          "internalType": "uint256",
          "name": "tokenId",
          "type": "uint256"
        },
        {
          "internalType": "string",
          "name": "_newURI",
          "type": "string"
        }
      ],
      "name": "changeURI",
      "outputs": [
        {
          "internalType": "bool",
          "name": "",
          "type": "bool"
        }
      ],
      "stateMutability": "nonpayable",
      "type": "function"
    },
    {
      "inputs": [],
      "name": "checkAdmin",
      "outputs": [
        {
          "internalType": "bool",
          "name": "",
          "type": "bool"
        }
      ],
      "stateMutability": "view",
      "type": "function"
    },
    {
      "inputs": [],
      "name": "getAdmin",
      "outputs": [
        {
          "internalType": "address[]",
          "name": "",
          "type": "address[]"
        }
      ],
      "stateMutability": "view",
      "type": "function"
    },
    {
      "inputs": [
        {
          "internalType": "uint256",
          "name": "tokenId",
          "type": "uint256"
        }
      ],
      "name": "getApproved",
      "outputs": [
        {
          "internalType": "address",
          "name": "",
          "type": "address"
        }
      ],
      "stateMutability": "view",
      "type": "function"
    },
    {
      "inputs": [],
      "name": "getETHBalance",
      "outputs": [
        {
          "internalType": "uint256",
          "name": "",
          "type": "uint256"
        }
      ],
      "stateMutability": "view",
      "type": "function"
    },
    {
      "inputs": [],
      "name": "getMaxSupply",
      "outputs": [
        {
          "internalType": "uint256",
          "name": "",
          "type": "uint256"
        }
      ],
      "stateMutability": "view",
      "type": "function"
    },
    {
      "inputs": [],
      "name": "getNFTBalance",
      "outputs": [
        {
          "internalType": "uint256",
          "name": "",
          "type": "uint256"
        }
      ],
      "stateMutability": "view",
      "type": "function"
    },
    {
      "inputs": [],
      "name": "getPublicSale",
      "outputs": [
        {
          "internalType": "bool",
          "name": "",
          "type": "bool"
        }
      ],
      "stateMutability": "view",
      "type": "function"
    },
    {
      "inputs": [],
      "name": "getTokenLimit",
      "outputs": [
        {
          "internalType": "uint256",
          "name": "",
          "type": "uint256"
        }
      ],
      "stateMutability": "view",
      "type": "function"
    },
    {
      "inputs": [],
      "name": "getWhiteList",
      "outputs": [
        {
          "internalType": "address[]",
          "name": "",
          "type": "address[]"
        }
      ],
      "stateMutability": "view",
      "type": "function"
    },
    {
      "inputs": [],
      "name": "getWhiteListSale",
      "outputs": [
        {
          "internalType": "bool",
          "name": "",
          "type": "bool"
        }
      ],
      "stateMutability": "view",
      "type": "function"
    },
    {
      "inputs": [],
      "name": "getWhiteListTokenLimit",
      "outputs": [
        {
          "internalType": "uint256",
          "name": "",
          "type": "uint256"
        }
      ],
      "stateMutability": "view",
      "type": "function"
    },
    {
      "inputs": [
        {
          "internalType": "address",
          "name": "owner",
          "type": "address"
        },
        {
          "internalType": "address",
          "name": "operator",
          "type": "address"
        }
      ],
      "name": "isApprovedForAll",
      "outputs": [
        {
          "internalType": "bool",
          "name": "",
          "type": "bool"
        }
      ],
      "stateMutability": "view",
      "type": "function"
    },
    {
      "inputs": [
        {
          "internalType": "address",
          "name": "recipient",
          "type": "address"
        },
        {
          "internalType": "string",
          "name": "_tokenURI",
          "type": "string"
        },
        {
          "internalType": "uint256",
          "name": "landType",
          "type": "uint256"
        }
      ],
      "name": "mintNFT",
      "outputs": [
        {
          "internalType": "uint256",
          "name": "",
          "type": "uint256"
        }
      ],
      "stateMutability": "payable",
      "type": "function"
    },
    {
      "inputs": [],
      "name": "name",
      "outputs": [
        {
          "internalType": "string",
          "name": "",
          "type": "string"
        }
      ],
      "stateMutability": "view",
      "type": "function"
    },
    {
      "inputs": [],
      "name": "owner",
      "outputs": [
        {
          "internalType": "address",
          "name": "",
          "type": "address"
        }
      ],
      "stateMutability": "view",
      "type": "function"
    },
    {
      "inputs": [
        {
          "internalType": "uint256",
          "name": "tokenId",
          "type": "uint256"
        }
      ],
      "name": "ownerOf",
      "outputs": [
        {
          "internalType": "address",
          "name": "",
          "type": "address"
        }
      ],
      "stateMutability": "view",
      "type": "function"
    },
    {
      "inputs": [],
      "name": "renounceOwnership",
      "outputs": [],
      "stateMutability": "nonpayable",
      "type": "function"
    },
    {
      "inputs": [
        {
          "internalType": "address",
          "name": "from",
          "type": "address"
        },
        {
          "internalType": "address",
          "name": "to",
          "type": "address"
        },
        {
          "internalType": "uint256",
          "name": "tokenId",
          "type": "uint256"
        }
      ],
      "name": "safeTransferFrom",
      "outputs": [],
      "stateMutability": "nonpayable",
      "type": "function"
    },
    {
      "inputs": [
        {
          "internalType": "address",
          "name": "from",
          "type": "address"
        },
        {
          "internalType": "address",
          "name": "to",
          "type": "address"
        },
        {
          "internalType": "uint256",
          "name": "tokenId",
          "type": "uint256"
        },
        {
          "internalType": "bytes",
          "name": "_data",
          "type": "bytes"
        }
      ],
      "name": "safeTransferFrom",
      "outputs": [],
      "stateMutability": "nonpayable",
      "type": "function"
    },
    {
      "inputs": [
        {
          "internalType": "address",
          "name": "operator",
          "type": "address"
        },
        {
          "internalType": "bool",
          "name": "approved",
          "type": "bool"
        }
      ],
      "name": "setApprovalForAll",
      "outputs": [],
      "stateMutability": "nonpayable",
      "type": "function"
    },
    {
      "inputs": [
        {
          "internalType": "bytes4",
          "name": "interfaceId",
          "type": "bytes4"
        }
      ],
      "name": "supportsInterface",
      "outputs": [
        {
          "internalType": "bool",
          "name": "",
          "type": "bool"
        }
      ],
      "stateMutability": "view",
      "type": "function"
    },
    {
      "inputs": [],
      "name": "symbol",
      "outputs": [
        {
          "internalType": "string",
          "name": "",
          "type": "string"
        }
      ],
      "stateMutability": "view",
      "type": "function"
    },
    {
      "inputs": [
        {
          "internalType": "uint256",
          "name": "tokenId",
          "type": "uint256"
        }
      ],
      "name": "tokenURI",
      "outputs": [
        {
          "internalType": "string",
          "name": "",
          "type": "string"
        }
      ],
      "stateMutability": "view",
      "type": "function"
    },
    {
      "inputs": [
        {
          "internalType": "address",
          "name": "from",
          "type": "address"
        },
        {
          "internalType": "address",
          "name": "to",
          "type": "address"
        },
        {
          "internalType": "uint256",
          "name": "tokenId",
          "type": "uint256"
        }
      ],
      "name": "transferFrom",
      "outputs": [],
      "stateMutability": "nonpayable",
      "type": "function"
    },
    {
      "inputs": [
        {
          "internalType": "address",
          "name": "newOwner",
          "type": "address"
        }
      ],
      "name": "transferOwnership",
      "outputs": [],
      "stateMutability": "nonpayable",
      "type": "function"
    },
    {
      "inputs": [
        {
          "internalType": "uint256",
          "name": "_updateMaxCount",
          "type": "uint256"
        }
      ],
      "name": "updateMaxSupply",
      "outputs": [],
      "stateMutability": "nonpayable",
      "type": "function"
    },
    {
      "inputs": [
        {
          "internalType": "bool",
          "name": "status",
          "type": "bool"
        }
      ],
      "name": "updatePublicSale",
      "outputs": [],
      "stateMutability": "nonpayable",
      "type": "function"
    },
    {
      "inputs": [
        {
          "internalType": "uint256",
          "name": "_newTokenLimit",
          "type": "uint256"
        }
      ],
      "name": "updateTokenLimit",
      "outputs": [],
      "stateMutability": "nonpayable",
      "type": "function"
    },
    {
      "inputs": [
        {
          "internalType": "bool",
          "name": "status",
          "type": "bool"
        }
      ],
      "name": "updateWhileListSale",
      "outputs": [],
      "stateMutability": "nonpayable",
      "type": "function"
    },
    {
      "inputs": [
        {
          "internalType": "uint256",
          "name": "_newTokenLimit",
          "type": "uint256"
        }
      ],
      "name": "updateWhiteListTokenLimit",
      "outputs": [],
      "stateMutability": "nonpayable",
      "type": "function"
    }
  ],
  "bytecode": "0x608060405261271060095560405180604001604052807311f10a5e2a2d9c433af27e91c0db14e7235d3ac973ffffffffffffffffffffffffffffffffffffffff1673ffffffffffffffffffffffffffffffffffffffff168152602001731d7b70d829cb349ef9dba52ffa778a01c87e1cf273ffffffffffffffffffffffffffffffffffffffff1673ffffffffffffffffffffffffffffffffffffffff16815250600b906002620000b19291906200036c565b50600a600e556000600f60006101000a81548160ff021916908315150217905550600a601155600a6012556000601360006101000a81548160ff02191690831515021790555060006017556001601855600a601955600b601a55600c601b55600d601c5567025bf6196bd10000601d556703782dace9d90000601e55670de0b6b3a7640000601f55671bc16d674ec8000060205567e757bcadb5c300006021556801ce8bf268fbc500006022553480156200016b57600080fd5b506040518060400160405280600581526020017f4d794e46540000000000000000000000000000000000000000000000000000008152506040518060400160405280600381526020017f4e465400000000000000000000000000000000000000000000000000000000008152508160009080519060200190620001f0929190620003fb565b50806001908051906020019062000209929190620003fb565b5050506200022c620002206200029e60201b60201c565b620002a660201b60201c565b6001600a6000731d7b70d829cb349ef9dba52ffa778a01c87e1cf273ffffffffffffffffffffffffffffffffffffffff1673ffffffffffffffffffffffffffffffffffffffff16815260200190815260200160002060006101000a81548160ff02191690831515021790555062000510565b600033905090565b6000600760009054906101000a900473ffffffffffffffffffffffffffffffffffffffff16905081600760006101000a81548173ffffffffffffffffffffffffffffffffffffffff021916908373ffffffffffffffffffffffffffffffffffffffff1602179055508173ffffffffffffffffffffffffffffffffffffffff168173ffffffffffffffffffffffffffffffffffffffff167f8be0079c531659141344cd1fd0a4f28419497f9722a3daafe3b4186f6b6457e060405160405180910390a35050565b828054828255906000526020600020908101928215620003e8579160200282015b82811115620003e75782518260006101000a81548173ffffffffffffffffffffffffffffffffffffffff021916908373ffffffffffffffffffffffffffffffffffffffff160217905550916020019190600101906200038d565b5b509050620003f791906200048c565b5090565b8280546200040990620004ab565b90600052602060002090601f0160209004810192826200042d576000855562000479565b82601f106200044857805160ff191683800117855562000479565b8280016001018555821562000479579182015b82811115620004785782518255916020019190600101906200045b565b5b5090506200048891906200048c565b5090565b5b80821115620004a75760008160009055506001016200048d565b5090565b60006002820490506001821680620004c457607f821691505b60208210811415620004db57620004da620004e1565b5b50919050565b7f4e487b7100000000000000000000000000000000000000000000000000000000600052602260045260246000fd5b61460f80620005206000396000f3fe6080604052600436106102045760003560e01c80636e94729811610118578063ab150226116100a0578063da6af9711161006f578063da6af9711461074a578063e985e9c514610787578063f103b433146107c4578063f2fde38b146107ed578063f682ee3b1461081657610204565b8063ab15022614610690578063b88d4fde146106bb578063c87b56dd146106e4578063d8bb6d7e1461072157610204565b806373794611116100e757806373794611146105bb5780638da5cb5b146105e65780638e9f2f721461061157806395d89b411461063c578063a22cb4651461066757610204565b80636e947298146105115780636e9960c31461053c57806370a0823114610567578063715018a6146105a457610204565b8063284855861161019b5780634bf530551161016a5780634bf530551461042c5780634c0f38c2146104575780635e1045ec146104825780635f93b125146104ab5780636352211e146104d457610204565b806328485586146103865780633d0950a8146103b1578063415b0fbb146103da57806342842e0e1461040357610204565b8063095ea7b3116101d7578063095ea7b3146102de57806309a9d76c14610307578063114138431461033257806323b872dd1461035d57610204565b806301ffc9a71461020957806306fdde0314610246578063081812fc1461027157806308598df0146102ae575b600080fd5b34801561021557600080fd5b50610230600480360381019061022b919061328d565b61083f565b60405161023d919061382e565b60405180910390f35b34801561025257600080fd5b5061025b610921565b6040516102689190613849565b60405180910390f35b34801561027d57600080fd5b50610298600480360381019061029391906132df565b6109b3565b6040516102a591906137a5565b60405180910390f35b6102c860048036038101906102c3919061317c565b610a38565b6040516102d59190613b4b565b60405180910390f35b3480156102ea57600080fd5b50610305600480360381019061030091906131e3565b610e12565b005b34801561031357600080fd5b5061031c610f2a565b604051610329919061380c565b60405180910390f35b34801561033e57600080fd5b50610347610fb8565b6040516103549190613b4b565b60405180910390f35b34801561036957600080fd5b50610384600480360381019061037f9190613076565b610fff565b005b34801561039257600080fd5b5061039b61105f565b6040516103a89190613b4b565b60405180910390f35b3480156103bd57600080fd5b506103d860048036038101906103d3919061321f565b611069565b005b3480156103e657600080fd5b5061040160048036038101906103fc9190613264565b611345565b005b34801561040f57600080fd5b5061042a60048036038101906104259190613076565b6113f5565b005b34801561043857600080fd5b50610441611415565b60405161044e919061382e565b60405180910390f35b34801561046357600080fd5b5061046c61142c565b6040516104799190613b4b565b60405180910390f35b34801561048e57600080fd5b506104a960048036038101906104a4919061321f565b611436565b005b3480156104b757600080fd5b506104d260048036038101906104cd91906132df565b611712565b005b3480156104e057600080fd5b506104fb60048036038101906104f691906132df565b6117af565b60405161050891906137a5565b60405180910390f35b34801561051d57600080fd5b50610526611861565b6040516105339190613b4b565b60405180910390f35b34801561054857600080fd5b50610551611869565b60405161055e919061380c565b60405180910390f35b34801561057357600080fd5b5061058e60048036038101906105899190613011565b6118f7565b60405161059b9190613b4b565b60405180910390f35b3480156105b057600080fd5b506105b96119af565b005b3480156105c757600080fd5b506105d0611a37565b6040516105dd9190613b4b565b60405180910390f35b3480156105f257600080fd5b506105fb611a41565b60405161060891906137a5565b60405180910390f35b34801561061d57600080fd5b50610626611a6b565b604051610633919061382e565b60405180910390f35b34801561064857600080fd5b50610651611a82565b60405161065e9190613849565b60405180910390f35b34801561067357600080fd5b5061068e60048036038101906106899190613140565b611b14565b005b34801561069c57600080fd5b506106a5611b2a565b6040516106b2919061382e565b60405180910390f35b3480156106c757600080fd5b506106e260048036038101906106dd91906130c5565b611bc5565b005b3480156106f057600080fd5b5061070b600480360381019061070691906132df565b611c27565b6040516107189190613849565b60405180910390f35b34801561072d57600080fd5b50610748600480360381019061074391906132df565b611d14565b005b34801561075657600080fd5b50610771600480360381019061076c9190613308565b611db1565b60405161077e919061382e565b60405180910390f35b34801561079357600080fd5b506107ae60048036038101906107a9919061303a565b611ec0565b6040516107bb919061382e565b60405180910390f35b3480156107d057600080fd5b506107eb60048036038101906107e691906132df565b611f54565b005b3480156107f957600080fd5b50610814600480360381019061080f9190613011565b611ff1565b005b34801561082257600080fd5b5061083d60048036038101906108389190613264565b6120e9565b005b60007f80ac58cd000000000000000000000000000000000000000000000000000000007bffffffffffffffffffffffffffffffffffffffffffffffffffffffff1916827bffffffffffffffffffffffffffffffffffffffffffffffffffffffff1916148061090a57507f5b5e139f000000000000000000000000000000000000000000000000000000007bffffffffffffffffffffffffffffffffffffffffffffffffffffffff1916827bffffffffffffffffffffffffffffffffffffffffffffffffffffffff1916145b8061091a575061091982612199565b5b9050919050565b60606000805461093090613dcf565b80601f016020809104026020016040519081016040528092919081815260200182805461095c90613dcf565b80156109a95780601f1061097e576101008083540402835291602001916109a9565b820191906000526020600020905b81548152906001019060200180831161098c57829003601f168201915b5050505050905090565b60006109be82612203565b6109fd576040517f08c379a00000000000000000000000000000000000000000000000000000000081526004016109f4906139eb565b60405180910390fd5b6004600083815260200190815260200160002060009054906101000a900473ffffffffffffffffffffffffffffffffffffffff169050919050565b60006009546001610a49600861226f565b610a539190613c5e565b10610a93576040517f08c379a0000000000000000000000000000000000000000000000000000000008152600401610a8a90613a4b565b60405180910390fd5b601154601060008673ffffffffffffffffffffffffffffffffffffffff1673ffffffffffffffffffffffffffffffffffffffff1681526020019081526020016000205410610b16576040517f08c379a0000000000000000000000000000000000000000000000000000000008152600401610b0d90613acb565b60405180910390fd5b6000610b22600861226f565b90506000600f60009054906101000a900460ff1615610c73576000610b468561227d565b9050348114610b8a576040517f08c379a0000000000000000000000000000000000000000000000000000000008152600401610b8190613a8b565b60405180910390fd5b610b9460086122a0565b610b9e87846122b6565b85601660008581526020019081526020016000209080519060200190610bc5929190612deb565b50601060008873ffffffffffffffffffffffffffffffffffffffff1673ffffffffffffffffffffffffffffffffffffffff1681526020019081526020016000206000815480929190610c1690613e32565b9190505550610c23611a41565b73ffffffffffffffffffffffffffffffffffffffff166108fc479081150290604051600060405180830381858888f19350505050158015610c68573d6000803e3d6000fd5b506001915050610dc6565b601360009054906101000a900460ff1615610dc0576000610c93856122d4565b9050348114610cd7576040517f08c379a0000000000000000000000000000000000000000000000000000000008152600401610cce90613a8b565b60405180910390fd5b610ce160086122a0565b610ceb87846122b6565b85601660008581526020019081526020016000209080519060200190610d12929190612deb565b50601060008873ffffffffffffffffffffffffffffffffffffffff1673ffffffffffffffffffffffffffffffffffffffff1681526020019081526020016000206000815480929190610d6390613e32565b9190505550610d70611a41565b73ffffffffffffffffffffffffffffffffffffffff166108fc479081150290604051600060405180830381858888f19350505050158015610db5573d6000803e3d6000fd5b506001915050610dc5565b600090505b5b80610e06576040517f08c379a0000000000000000000000000000000000000000000000000000000008152600401610dfd90613aeb565b60405180910390fd5b81925050509392505050565b6000610e1d826117af565b90508073ffffffffffffffffffffffffffffffffffffffff168373ffffffffffffffffffffffffffffffffffffffff161415610e8e576040517f08c379a0000000000000000000000000000000000000000000000000000000008152600401610e8590613a6b565b60405180910390fd5b8073ffffffffffffffffffffffffffffffffffffffff16610ead61235d565b73ffffffffffffffffffffffffffffffffffffffff161480610edc5750610edb81610ed661235d565b611ec0565b5b610f1b576040517f08c379a0000000000000000000000000000000000000000000000000000000008152600401610f129061396b565b60405180910390fd5b610f258383612365565b505050565b6060600d805480602002602001604051908101604052809291908181526020018280548015610fae57602002820191906000526020600020905b8160009054906101000a900473ffffffffffffffffffffffffffffffffffffffff1673ffffffffffffffffffffffffffffffffffffffff1681526020019060010190808311610f64575b5050505050905090565b6000601060003373ffffffffffffffffffffffffffffffffffffffff1673ffffffffffffffffffffffffffffffffffffffff16815260200190815260200160002054905090565b61101061100a61235d565b8261241e565b61104f576040517f08c379a000000000000000000000000000000000000000000000000000000000815260040161104690613aab565b60405180910390fd5b61105a8383836124fc565b505050565b6000601154905090565b61107161235d565b73ffffffffffffffffffffffffffffffffffffffff1661108f611a41565b73ffffffffffffffffffffffffffffffffffffffff16146110e5576040517f08c379a00000000000000000000000000000000000000000000000000000000081526004016110dc90613a0b565b60405180910390fd5b6000828290501161112b576040517f08c379a000000000000000000000000000000000000000000000000000000000815260040161112290613b2b565b60405180910390fd5b60005b8282905081101561134057600a6000848484818110611176577f4e487b7100000000000000000000000000000000000000000000000000000000600052603260045260246000fd5b905060200201602081019061118b9190613011565b73ffffffffffffffffffffffffffffffffffffffff1673ffffffffffffffffffffffffffffffffffffffff16815260200190815260200160002060009054906101000a900460ff1661128857600b838383818110611212577f4e487b7100000000000000000000000000000000000000000000000000000000600052603260045260246000fd5b90506020020160208101906112279190613011565b9080600181540180825580915050600190039060005260206000200160009091909190916101000a81548173ffffffffffffffffffffffffffffffffffffffff021916908373ffffffffffffffffffffffffffffffffffffffff1602179055505b6001600a60008585858181106112c7577f4e487b7100000000000000000000000000000000000000000000000000000000600052603260045260246000fd5b90506020020160208101906112dc9190613011565b73ffffffffffffffffffffffffffffffffffffffff1673ffffffffffffffffffffffffffffffffffffffff16815260200190815260200160002060006101000a81548160ff021916908315150217905550808061133890613e32565b91505061112e565b505050565b60011515600a60003373ffffffffffffffffffffffffffffffffffffffff1673ffffffffffffffffffffffffffffffffffffffff16815260200190815260200160002060009054906101000a900460ff161515146113d8576040517f08c379a00000000000000000000000000000000000000000000000000000000081526004016113cf90613a2b565b60405180910390fd5b80601360006101000a81548160ff02191690831515021790555050565b61141083838360405180602001604052806000815250611bc5565b505050565b6000601360009054906101000a900460ff16905090565b6000600954905090565b61143e61235d565b73ffffffffffffffffffffffffffffffffffffffff1661145c611a41565b73ffffffffffffffffffffffffffffffffffffffff16146114b2576040517f08c379a00000000000000000000000000000000000000000000000000000000081526004016114a990613a0b565b60405180910390fd5b600082829050116114f8576040517f08c379a00000000000000000000000000000000000000000000000000000000081526004016114ef90613b0b565b60405180910390fd5b60005b8282905081101561170d57600c6000848484818110611543577f4e487b7100000000000000000000000000000000000000000000000000000000600052603260045260246000fd5b90506020020160208101906115589190613011565b73ffffffffffffffffffffffffffffffffffffffff1673ffffffffffffffffffffffffffffffffffffffff16815260200190815260200160002060009054906101000a900460ff1661165557600d8383838181106115df577f4e487b7100000000000000000000000000000000000000000000000000000000600052603260045260246000fd5b90506020020160208101906115f49190613011565b9080600181540180825580915050600190039060005260206000200160009091909190916101000a81548173ffffffffffffffffffffffffffffffffffffffff021916908373ffffffffffffffffffffffffffffffffffffffff1602179055505b6001600c6000858585818110611694577f4e487b7100000000000000000000000000000000000000000000000000000000600052603260045260246000fd5b90506020020160208101906116a99190613011565b73ffffffffffffffffffffffffffffffffffffffff1673ffffffffffffffffffffffffffffffffffffffff16815260200190815260200160002060006101000a81548160ff021916908315150217905550808061170590613e32565b9150506114fb565b505050565b60011515600a60003373ffffffffffffffffffffffffffffffffffffffff1673ffffffffffffffffffffffffffffffffffffffff16815260200190815260200160002060009054906101000a900460ff161515146117a5576040517f08c379a000000000000000000000000000000000000000000000000000000000815260040161179c90613a2b565b60405180910390fd5b8060118190555050565b6000806002600084815260200190815260200160002060009054906101000a900473ffffffffffffffffffffffffffffffffffffffff169050600073ffffffffffffffffffffffffffffffffffffffff168173ffffffffffffffffffffffffffffffffffffffff161415611858576040517f08c379a000000000000000000000000000000000000000000000000000000000815260040161184f906139ab565b60405180910390fd5b80915050919050565b600047905090565b6060600b8054806020026020016040519081016040528092919081815260200182805480156118ed57602002820191906000526020600020905b8160009054906101000a900473ffffffffffffffffffffffffffffffffffffffff1673ffffffffffffffffffffffffffffffffffffffff16815260200190600101908083116118a3575b5050505050905090565b60008073ffffffffffffffffffffffffffffffffffffffff168273ffffffffffffffffffffffffffffffffffffffff161415611968576040517f08c379a000000000000000000000000000000000000000000000000000000000815260040161195f9061398b565b60405180910390fd5b600360008373ffffffffffffffffffffffffffffffffffffffff1673ffffffffffffffffffffffffffffffffffffffff168152602001908152602001600020549050919050565b6119b761235d565b73ffffffffffffffffffffffffffffffffffffffff166119d5611a41565b73ffffffffffffffffffffffffffffffffffffffff1614611a2b576040517f08c379a0000000000000000000000000000000000000000000000000000000008152600401611a2290613a0b565b60405180910390fd5b611a356000612763565b565b6000600e54905090565b6000600760009054906101000a900473ffffffffffffffffffffffffffffffffffffffff16905090565b6000600f60009054906101000a900460ff16905090565b606060018054611a9190613dcf565b80601f0160208091040260200160405190810160405280929190818152602001828054611abd90613dcf565b8015611b0a5780601f10611adf57610100808354040283529160200191611b0a565b820191906000526020600020905b815481529060010190602001808311611aed57829003601f168201915b5050505050905090565b611b26611b1f61235d565b8383612829565b5050565b600080611b35611a41565b73ffffffffffffffffffffffffffffffffffffffff163373ffffffffffffffffffffffffffffffffffffffff1614611bb957600a60003373ffffffffffffffffffffffffffffffffffffffff1673ffffffffffffffffffffffffffffffffffffffff16815260200190815260200160002060009054906101000a900460ff16611bbc565b60015b90508091505090565b611bd6611bd061235d565b8361241e565b611c15576040517f08c379a0000000000000000000000000000000000000000000000000000000008152600401611c0c90613aab565b60405180910390fd5b611c2184848484612996565b50505050565b6060611c3282612203565b611c71576040517f08c379a0000000000000000000000000000000000000000000000000000000008152600401611c689061394b565b60405180910390fd5b601660008381526020019081526020016000208054611c8f90613dcf565b80601f0160208091040260200160405190810160405280929190818152602001828054611cbb90613dcf565b8015611d085780601f10611cdd57610100808354040283529160200191611d08565b820191906000526020600020905b815481529060010190602001808311611ceb57829003601f168201915b50505050509050919050565b60011515600a60003373ffffffffffffffffffffffffffffffffffffffff1673ffffffffffffffffffffffffffffffffffffffff16815260200190815260200160002060009054906101000a900460ff16151514611da7576040517f08c379a0000000000000000000000000000000000000000000000000000000008152600401611d9e90613a2b565b60405180910390fd5b80600e8190555050565b600060011515600a60003373ffffffffffffffffffffffffffffffffffffffff1673ffffffffffffffffffffffffffffffffffffffff16815260200190815260200160002060009054906101000a900460ff16151514611e46576040517f08c379a0000000000000000000000000000000000000000000000000000000008152600401611e3d90613a2b565b60405180910390fd5b611e4f83612203565b611e8e576040517f08c379a0000000000000000000000000000000000000000000000000000000008152600401611e859061394b565b60405180910390fd5b81601660008581526020019081526020016000209080519060200190611eb5929190612deb565b506001905092915050565b6000600560008473ffffffffffffffffffffffffffffffffffffffff1673ffffffffffffffffffffffffffffffffffffffff16815260200190815260200160002060008373ffffffffffffffffffffffffffffffffffffffff1673ffffffffffffffffffffffffffffffffffffffff16815260200190815260200160002060009054906101000a900460ff16905092915050565b60011515600a60003373ffffffffffffffffffffffffffffffffffffffff1673ffffffffffffffffffffffffffffffffffffffff16815260200190815260200160002060009054906101000a900460ff16151514611fe7576040517f08c379a0000000000000000000000000000000000000000000000000000000008152600401611fde90613a2b565b60405180910390fd5b8060098190555050565b611ff961235d565b73ffffffffffffffffffffffffffffffffffffffff16612017611a41565b73ffffffffffffffffffffffffffffffffffffffff161461206d576040517f08c379a000000000000000000000000000000000000000000000000000000000815260040161206490613a0b565b60405180910390fd5b600073ffffffffffffffffffffffffffffffffffffffff168173ffffffffffffffffffffffffffffffffffffffff1614156120dd576040517f08c379a00000000000000000000000000000000000000000000000000000000081526004016120d49061388b565b60405180910390fd5b6120e681612763565b50565b60011515600a60003373ffffffffffffffffffffffffffffffffffffffff1673ffffffffffffffffffffffffffffffffffffffff16815260200190815260200160002060009054906101000a900460ff1615151461217c576040517f08c379a000000000000000000000000000000000000000000000000000000000815260040161217390613a2b565b60405180910390fd5b80600f60006101000a81548160ff02191690831515021790555050565b60007f01ffc9a7000000000000000000000000000000000000000000000000000000007bffffffffffffffffffffffffffffffffffffffffffffffffffffffff1916827bffffffffffffffffffffffffffffffffffffffffffffffffffffffff1916149050919050565b60008073ffffffffffffffffffffffffffffffffffffffff166002600084815260200190815260200160002060009054906101000a900473ffffffffffffffffffffffffffffffffffffffff1673ffffffffffffffffffffffffffffffffffffffff1614159050919050565b600081600001549050919050565b600080612289836122d4565b90506002816122989190613cb4565b915050919050565b6001816000016000828254019250508190555050565b6122d08282604051806020016040528060008152506129f2565b5050565b600080600090506017548314156122ef57601d549050612354565b60185483141561230357601e549050612353565b60195483141561231757601f549050612352565b601a5483141561232b576020549050612351565b601b5483141561233f576021549050612350565b601c5483141561234f5760225490505b5b5b5b5b5b80915050919050565b600033905090565b816004600083815260200190815260200160002060006101000a81548173ffffffffffffffffffffffffffffffffffffffff021916908373ffffffffffffffffffffffffffffffffffffffff160217905550808273ffffffffffffffffffffffffffffffffffffffff166123d8836117af565b73ffffffffffffffffffffffffffffffffffffffff167f8c5be1e5ebec7d5bd14f71427d1e84f3dd0314c0f7b2291e5b200ac8c7c3b92560405160405180910390a45050565b600061242982612203565b612468576040517f08c379a000000000000000000000000000000000000000000000000000000000815260040161245f9061392b565b60405180910390fd5b6000612473836117af565b90508073ffffffffffffffffffffffffffffffffffffffff168473ffffffffffffffffffffffffffffffffffffffff1614806124b557506124b48185611ec0565b5b806124f357508373ffffffffffffffffffffffffffffffffffffffff166124db846109b3565b73ffffffffffffffffffffffffffffffffffffffff16145b91505092915050565b8273ffffffffffffffffffffffffffffffffffffffff1661251c826117af565b73ffffffffffffffffffffffffffffffffffffffff1614612572576040517f08c379a0000000000000000000000000000000000000000000000000000000008152600401612569906138ab565b60405180910390fd5b600073ffffffffffffffffffffffffffffffffffffffff168273ffffffffffffffffffffffffffffffffffffffff1614156125e2576040517f08c379a00000000000000000000000000000000000000000000000000000000081526004016125d9906138eb565b60405180910390fd5b6125ed838383612a4d565b6125f8600082612365565b6001600360008573ffffffffffffffffffffffffffffffffffffffff1673ffffffffffffffffffffffffffffffffffffffff16815260200190815260200160002060008282546126489190613ce5565b925050819055506001600360008473ffffffffffffffffffffffffffffffffffffffff1673ffffffffffffffffffffffffffffffffffffffff168152602001908152602001600020600082825461269f9190613c5e565b92505081905550816002600083815260200190815260200160002060006101000a81548173ffffffffffffffffffffffffffffffffffffffff021916908373ffffffffffffffffffffffffffffffffffffffff160217905550808273ffffffffffffffffffffffffffffffffffffffff168473ffffffffffffffffffffffffffffffffffffffff167fddf252ad1be2c89b69c2b068fc378daa952ba7f163c4a11628f55a4df523b3ef60405160405180910390a461275e838383612a52565b505050565b6000600760009054906101000a900473ffffffffffffffffffffffffffffffffffffffff16905081600760006101000a81548173ffffffffffffffffffffffffffffffffffffffff021916908373ffffffffffffffffffffffffffffffffffffffff1602179055508173ffffffffffffffffffffffffffffffffffffffff168173ffffffffffffffffffffffffffffffffffffffff167f8be0079c531659141344cd1fd0a4f28419497f9722a3daafe3b4186f6b6457e060405160405180910390a35050565b8173ffffffffffffffffffffffffffffffffffffffff168373ffffffffffffffffffffffffffffffffffffffff161415612898576040517f08c379a000000000000000000000000000000000000000000000000000000000815260040161288f9061390b565b60405180910390fd5b80600560008573ffffffffffffffffffffffffffffffffffffffff1673ffffffffffffffffffffffffffffffffffffffff16815260200190815260200160002060008473ffffffffffffffffffffffffffffffffffffffff1673ffffffffffffffffffffffffffffffffffffffff16815260200190815260200160002060006101000a81548160ff0219169083151502179055508173ffffffffffffffffffffffffffffffffffffffff168373ffffffffffffffffffffffffffffffffffffffff167f17307eab39ab6107e8899845ad3d59bd9653f200f220920489ca2b5937696c3183604051612989919061382e565b60405180910390a3505050565b6129a18484846124fc565b6129ad84848484612a57565b6129ec576040517f08c379a00000000000000000000000000000000000000000000000000000000081526004016129e39061386b565b60405180910390fd5b50505050565b6129fc8383612bee565b612a096000848484612a57565b612a48576040517f08c379a0000000000000000000000000000000000000000000000000000000008152600401612a3f9061386b565b60405180910390fd5b505050565b505050565b505050565b6000612a788473ffffffffffffffffffffffffffffffffffffffff16612dc8565b15612be1578373ffffffffffffffffffffffffffffffffffffffff1663150b7a02612aa161235d565b8786866040518563ffffffff1660e01b8152600401612ac394939291906137c0565b602060405180830381600087803b158015612add57600080fd5b505af1925050508015612b0e57506040513d601f19601f82011682018060405250810190612b0b91906132b6565b60015b612b91573d8060008114612b3e576040519150601f19603f3d011682016040523d82523d6000602084013e612b43565b606091505b50600081511415612b89576040517f08c379a0000000000000000000000000000000000000000000000000000000008152600401612b809061386b565b60405180910390fd5b805181602001fd5b63150b7a0260e01b7bffffffffffffffffffffffffffffffffffffffffffffffffffffffff1916817bffffffffffffffffffffffffffffffffffffffffffffffffffffffff191614915050612be6565b600190505b949350505050565b600073ffffffffffffffffffffffffffffffffffffffff168273ffffffffffffffffffffffffffffffffffffffff161415612c5e576040517f08c379a0000000000000000000000000000000000000000000000000000000008152600401612c55906139cb565b60405180910390fd5b612c6781612203565b15612ca7576040517f08c379a0000000000000000000000000000000000000000000000000000000008152600401612c9e906138cb565b60405180910390fd5b612cb360008383612a4d565b6001600360008473ffffffffffffffffffffffffffffffffffffffff1673ffffffffffffffffffffffffffffffffffffffff1681526020019081526020016000206000828254612d039190613c5e565b92505081905550816002600083815260200190815260200160002060006101000a81548173ffffffffffffffffffffffffffffffffffffffff021916908373ffffffffffffffffffffffffffffffffffffffff160217905550808273ffffffffffffffffffffffffffffffffffffffff16600073ffffffffffffffffffffffffffffffffffffffff167fddf252ad1be2c89b69c2b068fc378daa952ba7f163c4a11628f55a4df523b3ef60405160405180910390a4612dc460008383612a52565b5050565b6000808273ffffffffffffffffffffffffffffffffffffffff163b119050919050565b828054612df790613dcf565b90600052602060002090601f016020900481019282612e195760008555612e60565b82601f10612e3257805160ff1916838001178555612e60565b82800160010185558215612e60579182015b82811115612e5f578251825591602001919060010190612e44565b5b509050612e6d9190612e71565b5090565b5b80821115612e8a576000816000905550600101612e72565b5090565b6000612ea1612e9c84613b8b565b613b66565b905082815260208101848484011115612eb957600080fd5b612ec4848285613d8d565b509392505050565b6000612edf612eda84613bbc565b613b66565b905082815260208101848484011115612ef757600080fd5b612f02848285613d8d565b509392505050565b600081359050612f198161457d565b92915050565b60008083601f840112612f3157600080fd5b8235905067ffffffffffffffff811115612f4a57600080fd5b602083019150836020820283011115612f6257600080fd5b9250929050565b600081359050612f7881614594565b92915050565b600081359050612f8d816145ab565b92915050565b600081519050612fa2816145ab565b92915050565b600082601f830112612fb957600080fd5b8135612fc9848260208601612e8e565b91505092915050565b600082601f830112612fe357600080fd5b8135612ff3848260208601612ecc565b91505092915050565b60008135905061300b816145c2565b92915050565b60006020828403121561302357600080fd5b600061303184828501612f0a565b91505092915050565b6000806040838503121561304d57600080fd5b600061305b85828601612f0a565b925050602061306c85828601612f0a565b9150509250929050565b60008060006060848603121561308b57600080fd5b600061309986828701612f0a565b93505060206130aa86828701612f0a565b92505060406130bb86828701612ffc565b9150509250925092565b600080600080608085870312156130db57600080fd5b60006130e987828801612f0a565b94505060206130fa87828801612f0a565b935050604061310b87828801612ffc565b925050606085013567ffffffffffffffff81111561312857600080fd5b61313487828801612fa8565b91505092959194509250565b6000806040838503121561315357600080fd5b600061316185828601612f0a565b925050602061317285828601612f69565b9150509250929050565b60008060006060848603121561319157600080fd5b600061319f86828701612f0a565b935050602084013567ffffffffffffffff8111156131bc57600080fd5b6131c886828701612fd2565b92505060406131d986828701612ffc565b9150509250925092565b600080604083850312156131f657600080fd5b600061320485828601612f0a565b925050602061321585828601612ffc565b9150509250929050565b6000806020838503121561323257600080fd5b600083013567ffffffffffffffff81111561324c57600080fd5b61325885828601612f1f565b92509250509250929050565b60006020828403121561327657600080fd5b600061328484828501612f69565b91505092915050565b60006020828403121561329f57600080fd5b60006132ad84828501612f7e565b91505092915050565b6000602082840312156132c857600080fd5b60006132d684828501612f93565b91505092915050565b6000602082840312156132f157600080fd5b60006132ff84828501612ffc565b91505092915050565b6000806040838503121561331b57600080fd5b600061332985828601612ffc565b925050602083013567ffffffffffffffff81111561334657600080fd5b61335285828601612fd2565b9150509250929050565b60006133688383613374565b60208301905092915050565b61337d81613d19565b82525050565b61338c81613d19565b82525050565b600061339d82613bfd565b6133a78185613c2b565b93506133b283613bed565b8060005b838110156133e35781516133ca888261335c565b97506133d583613c1e565b9250506001810190506133b6565b5085935050505092915050565b6133f981613d2b565b82525050565b600061340a82613c08565b6134148185613c3c565b9350613424818560208601613d9c565b61342d81613f37565b840191505092915050565b600061344382613c13565b61344d8185613c4d565b935061345d818560208601613d9c565b61346681613f37565b840191505092915050565b600061347e603283613c4d565b915061348982613f48565b604082019050919050565b60006134a1602683613c4d565b91506134ac82613f97565b604082019050919050565b60006134c4602583613c4d565b91506134cf82613fe6565b604082019050919050565b60006134e7601c83613c4d565b91506134f282614035565b602082019050919050565b600061350a602483613c4d565b91506135158261405e565b604082019050919050565b600061352d601983613c4d565b9150613538826140ad565b602082019050919050565b6000613550602c83613c4d565b915061355b826140d6565b604082019050919050565b6000613573601a83613c4d565b915061357e82614125565b602082019050919050565b6000613596603883613c4d565b91506135a18261414e565b604082019050919050565b60006135b9602a83613c4d565b91506135c48261419d565b604082019050919050565b60006135dc602983613c4d565b91506135e7826141ec565b604082019050919050565b60006135ff602083613c4d565b915061360a8261423b565b602082019050919050565b6000613622602c83613c4d565b915061362d82614264565b604082019050919050565b6000613645602083613c4d565b9150613650826142b3565b602082019050919050565b6000613668602b83613c4d565b9150613673826142dc565b604082019050919050565b600061368b602883613c4d565b91506136968261432b565b604082019050919050565b60006136ae602183613c4d565b91506136b98261437a565b604082019050919050565b60006136d1602883613c4d565b91506136dc826143c9565b604082019050919050565b60006136f4603183613c4d565b91506136ff82614418565b604082019050919050565b6000613717602483613c4d565b915061372282614467565b604082019050919050565b600061373a603483613c4d565b9150613745826144b6565b604082019050919050565b600061375d602683613c4d565b915061376882614505565b604082019050919050565b6000613780601883613c4d565b915061378b82614554565b602082019050919050565b61379f81613d83565b82525050565b60006020820190506137ba6000830184613383565b92915050565b60006080820190506137d56000830187613383565b6137e26020830186613383565b6137ef6040830185613796565b818103606083015261380181846133ff565b905095945050505050565b600060208201905081810360008301526138268184613392565b905092915050565b600060208201905061384360008301846133f0565b92915050565b600060208201905081810360008301526138638184613438565b905092915050565b6000602082019050818103600083015261388481613471565b9050919050565b600060208201905081810360008301526138a481613494565b9050919050565b600060208201905081810360008301526138c4816134b7565b9050919050565b600060208201905081810360008301526138e4816134da565b9050919050565b60006020820190508181036000830152613904816134fd565b9050919050565b6000602082019050818103600083015261392481613520565b9050919050565b6000602082019050818103600083015261394481613543565b9050919050565b6000602082019050818103600083015261396481613566565b9050919050565b6000602082019050818103600083015261398481613589565b9050919050565b600060208201905081810360008301526139a4816135ac565b9050919050565b600060208201905081810360008301526139c4816135cf565b9050919050565b600060208201905081810360008301526139e4816135f2565b9050919050565b60006020820190508181036000830152613a0481613615565b9050919050565b60006020820190508181036000830152613a2481613638565b9050919050565b60006020820190508181036000830152613a448161365b565b9050919050565b60006020820190508181036000830152613a648161367e565b9050919050565b60006020820190508181036000830152613a84816136a1565b9050919050565b60006020820190508181036000830152613aa4816136c4565b9050919050565b60006020820190508181036000830152613ac4816136e7565b9050919050565b60006020820190508181036000830152613ae48161370a565b9050919050565b60006020820190508181036000830152613b048161372d565b9050919050565b60006020820190508181036000830152613b2481613750565b9050919050565b60006020820190508181036000830152613b4481613773565b9050919050565b6000602082019050613b606000830184613796565b92915050565b6000613b70613b81565b9050613b7c8282613e01565b919050565b6000604051905090565b600067ffffffffffffffff821115613ba657613ba5613f08565b5b613baf82613f37565b9050602081019050919050565b600067ffffffffffffffff821115613bd757613bd6613f08565b5b613be082613f37565b9050602081019050919050565b6000819050602082019050919050565b600081519050919050565b600081519050919050565b600081519050919050565b6000602082019050919050565b600082825260208201905092915050565b600082825260208201905092915050565b600082825260208201905092915050565b6000613c6982613d83565b9150613c7483613d83565b9250827fffffffffffffffffffffffffffffffffffffffffffffffffffffffffffffffff03821115613ca957613ca8613e7b565b5b828201905092915050565b6000613cbf82613d83565b9150613cca83613d83565b925082613cda57613cd9613eaa565b5b828204905092915050565b6000613cf082613d83565b9150613cfb83613d83565b925082821015613d0e57613d0d613e7b565b5b828203905092915050565b6000613d2482613d63565b9050919050565b60008115159050919050565b60007fffffffff0000000000000000000000000000000000000000000000000000000082169050919050565b600073ffffffffffffffffffffffffffffffffffffffff82169050919050565b6000819050919050565b82818337600083830152505050565b60005b83811015613dba578082015181840152602081019050613d9f565b83811115613dc9576000848401525b50505050565b60006002820490506001821680613de757607f821691505b60208210811415613dfb57613dfa613ed9565b5b50919050565b613e0a82613f37565b810181811067ffffffffffffffff82111715613e2957613e28613f08565b5b80604052505050565b6000613e3d82613d83565b91507fffffffffffffffffffffffffffffffffffffffffffffffffffffffffffffffff821415613e7057613e6f613e7b565b5b600182019050919050565b7f4e487b7100000000000000000000000000000000000000000000000000000000600052601160045260246000fd5b7f4e487b7100000000000000000000000000000000000000000000000000000000600052601260045260246000fd5b7f4e487b7100000000000000000000000000000000000000000000000000000000600052602260045260246000fd5b7f4e487b7100000000000000000000000000000000000000000000000000000000600052604160045260246000fd5b6000601f19601f8301169050919050565b7f4552433732313a207472616e7366657220746f206e6f6e20455243373231526560008201527f63656976657220696d706c656d656e7465720000000000000000000000000000602082015250565b7f4f776e61626c653a206e6577206f776e657220697320746865207a65726f206160008201527f6464726573730000000000000000000000000000000000000000000000000000602082015250565b7f4552433732313a207472616e736665722066726f6d20696e636f72726563742060008201527f6f776e6572000000000000000000000000000000000000000000000000000000602082015250565b7f4552433732313a20746f6b656e20616c7265616479206d696e74656400000000600082015250565b7f4552433732313a207472616e7366657220746f20746865207a65726f2061646460008201527f7265737300000000000000000000000000000000000000000000000000000000602082015250565b7f4552433732313a20617070726f766520746f2063616c6c657200000000000000600082015250565b7f4552433732313a206f70657261746f7220717565727920666f72206e6f6e657860008201527f697374656e7420746f6b656e0000000000000000000000000000000000000000602082015250565b7f50616c616e65756d3a20496e76616c696420746f6b656e204964000000000000600082015250565b7f4552433732313a20617070726f76652063616c6c6572206973206e6f74206f7760008201527f6e6572206e6f7220617070726f76656420666f7220616c6c0000000000000000602082015250565b7f4552433732313a2062616c616e636520717565727920666f7220746865207a6560008201527f726f206164647265737300000000000000000000000000000000000000000000602082015250565b7f4552433732313a206f776e657220717565727920666f72206e6f6e657869737460008201527f656e7420746f6b656e0000000000000000000000000000000000000000000000602082015250565b7f4552433732313a206d696e7420746f20746865207a65726f2061646472657373600082015250565b7f4552433732313a20617070726f76656420717565727920666f72206e6f6e657860008201527f697374656e7420746f6b656e0000000000000000000000000000000000000000602082015250565b7f4f776e61626c653a2063616c6c6572206973206e6f7420746865206f776e6572600082015250565b7f50616c616e65756d3a204f6e6c792041646d696e2063616e2063616c6c20746860008201527f69732066756e6374696f6e000000000000000000000000000000000000000000602082015250565b7f50616c616e65756d3a204e6f7420656e6f75676820746f6b656e73206c65667460008201527f20746f206275792e000000000000000000000000000000000000000000000000602082015250565b7f4552433732313a20617070726f76616c20746f2063757272656e74206f776e6560008201527f7200000000000000000000000000000000000000000000000000000000000000602082015250565b7f50616c616e65756d3a2042616c616e6365206973206e6f7420656e6f7567682060008201527f746f206d696e742e000000000000000000000000000000000000000000000000602082015250565b7f4552433732313a207472616e736665722063616c6c6572206973206e6f74206f60008201527f776e6572206e6f7220617070726f766564000000000000000000000000000000602082015250565b7f50616c616e65756d3a204578636565642074686520616d6f756e7420746f206d60008201527f696e742e00000000000000000000000000000000000000000000000000000000602082015250565b7f50616c616e65756d3a204d696e74206973206661696c65642064756520746f2060008201527f646561637469766174696f6e206f662053616c65000000000000000000000000602082015250565b7f50616c616e65756d3a204f6e6c79206f776e65722063616e206164642077686960008201527f74656c6973740000000000000000000000000000000000000000000000000000602082015250565b7f43616e6e6f742061646420656d70747920616464726573730000000000000000600082015250565b61458681613d19565b811461459157600080fd5b50565b61459d81613d2b565b81146145a857600080fd5b50565b6145b481613d37565b81146145bf57600080fd5b50565b6145cb81613d83565b81146145d657600080fd5b5056fea2646970667358221220cca1cd19ec9e1e0eff84280945ce112f6b9a6112dbe0ae1ac9f6f444a4d7695d64736f6c63430008010033",
  "linkReferences": {},
  "deployedLinkReferences": {}
}